{
  "contractName": "MerkleProof",
  "abi": [
    {
      "inputs": [],
      "name": "count",
      "outputs": [
        {
          "internalType": "uint256",
          "name": "",
          "type": "uint256"
        }
      ],
      "stateMutability": "view",
      "type": "function",
      "constant": true
    },
    {
      "inputs": [
        {
          "internalType": "uint256",
          "name": "",
          "type": "uint256"
        }
      ],
      "name": "hashes",
      "outputs": [
        {
          "internalType": "bytes32",
          "name": "",
          "type": "bytes32"
        }
      ],
      "stateMutability": "view",
      "type": "function",
      "constant": true
    },
    {
      "inputs": [
        {
          "internalType": "string[]",
          "name": "_transactions",
          "type": "string[]"
        }
      ],
      "name": "inputTransaction",
      "outputs": [],
      "stateMutability": "nonpayable",
      "type": "function"
    },
    {
      "inputs": [
        {
          "internalType": "uint256",
          "name": "index",
          "type": "uint256"
        },
        {
          "internalType": "bytes32",
          "name": "leaf",
          "type": "bytes32"
        }
      ],
      "name": "verify",
      "outputs": [
        {
          "internalType": "bool",
          "name": "",
          "type": "bool"
        }
      ],
      "stateMutability": "view",
      "type": "function",
      "constant": true
    },
    {
      "inputs": [],
      "name": "getHashes",
      "outputs": [
        {
          "internalType": "bytes32[]",
          "name": "",
          "type": "bytes32[]"
        }
      ],
      "stateMutability": "view",
      "type": "function",
      "constant": true
    },
    {
      "inputs": [],
      "name": "getRoot",
      "outputs": [
        {
          "internalType": "bytes32",
          "name": "",
          "type": "bytes32"
        }
      ],
      "stateMutability": "view",
      "type": "function",
      "constant": true
    }
  ],
  "bytecode": "0x608060405234801561001057600080fd5b50610a6d806100206000396000f3fe608060405234801561001057600080fd5b506004361061007e577c0100000000000000000000000000000000000000000000000000000000600035046306661abd81146100835780631d97ce311461009f5780634245d48e146100c2578063501895ae146100d75780635ca1e165146100ea578063c8f3531f146100f2575b600080fd5b61008c60015481565b6040519081526020015b60405180910390f35b6100b26100ad36600461075e565b610107565b6040519015158152602001610096565b6100ca6101ff565b6040516100969190610780565b61008c6100e53660046107c4565b610257565b61008c610278565b610105610100366004610827565b6102aa565b005b60008061011384610331565b90508260005b82518110156101d05760008382815181106101365761013661093f565b6020026020010151905060028761014d9190610971565b6101825760408051602081018590529081018290526060016040516020818303038152906040528051906020012092506101af565b60408051602081018390529081018490526060016040516020818303038152906040528051906020012092505b6101ba60028861099e565b96505080806101c8906109b2565b915050610119565b5060006101db610278565b9050818114156101f157600193505050506101f9565b600093505050505b92915050565b6060600080548060200260200160405190810160405280929190818152602001828054801561024d57602002820191906000526020600020905b815481526020019060010190808311610239575b5050505050905090565b6000818154811061026757600080fd5b600091825260209091200154905081565b60008054819061028a906001906109cd565b8154811061029a5761029a61093f565b9060005260206000200154905090565b805160015560005b6001548110156103255760008282815181106102d0576102d061093f565b60200260200101516040516020016102e891906109e4565b60408051601f198184030181529190528051602091820120825460018101845560009384529190922001558061031d816109b2565b9150506102b2565b5061032e61066a565b50565b60606000610541600154604080517ff8f9cbfae6cc78fbefe7cdc3a1793dfcf4f0e8bbd8cec470b6a28a7a5a3e1efd81527ff5ecf1b3e9debc68e1d9cfabc5997135bfb7a7a3938b7b606b5b4b3f2f1f0ffe60208201527ff6e4ed9ff2d6b458eadcdf97bd91692de2d4da8fd2d0ac50c6ae9a8272523616818301527fc8c0b887b0a8a4489c948c7f847c6125746c645c544c444038302820181008ff60608201527ff7cae577eec2a03cf3bad76fb589591debb2dd67e0aa9834bea6925f6a4a2e0e60808201527fe39ed557db96902cd38ed14fad815115c786af479b7e8324736353433727170760a08201527fc976c13bb96e881cb166a933a55e490d9d56952b8d4e801485467d236242260660c08201527f753a6d1b65325d0c552a4d1345224105391a310b29122104190a11030902010060e08201526101008181019092527f01000000000000000000000000000000000000000000000000000000000000007e818283848586878898a8b8c8d8e8f929395969799a9b9d9e9faaeb6bedeeff70010000000000000000000000000000000068010000000000000000640100000000620100006010600460026000198c0190810417908104179081041788810417908104179081041790810417908104176001010281900460ff03909101517f800000000000000000000000000000000000000000000000000000000000000090931190910291040190565b905060008167ffffffffffffffff81111561055e5761055e6107dd565b604051908082528060200260200182016040528015610587578160200160208202803683370190505b50905060005b82811015610662576105a0600286610971565b6105ef5760006105b1866001610a1f565b815481106105c1576105c161093f565b90600052602060002001548282815181106105de576105de61093f565b602002602001018181525050610636565b60006105fc6001876109cd565b8154811061060c5761060c61093f565b90600052602060002001548282815181106106295761062961093f565b6020026020010181815250505b60015461064460028761099e565b61064e9190610a1f565b94508061065a816109b2565b91505061058d565b509392505050565b60008054905b811561075a5760005b6106846001846109cd565b81101561073b576000806106988385610a1f565b815481106106a8576106a861093f565b6000918252602082200154906106be8486610a1f565b6106c9906001610a1f565b815481106106d9576106d961093f565b90600052602060002001546040516020016106fe929190918252602082015260400190565b60408051601f19818403018152919052805160209182012082546001810184556000938452919092200155610734600282610a1f565b9050610679565b506107468282610a1f565b905061075360028361099e565b9150610670565b5050565b6000806040838503121561077157600080fd5b50508035926020909101359150565b6020808252825182820181905260009190848201906040850190845b818110156107b85783518352928401929184019160010161079c565b50909695505050505050565b6000602082840312156107d657600080fd5b5035919050565b60e060020a634e487b7102600052604160045260246000fd5b604051601f8201601f1916810167ffffffffffffffff8111828210171561081f5761081f6107dd565b604052919050565b6000602080838503121561083a57600080fd5b823567ffffffffffffffff8082111561085257600080fd5b8185019150601f868184011261086757600080fd5b823582811115610879576108796107dd565b8481026108878682016107f6565b918252848101860191868101908a8411156108a157600080fd5b87870192505b83831015610931578235868111156108bf5760008081fd5b8701603f81018c136108d15760008081fd5b888101356040888211156108e7576108e76107dd565b6108f8828901601f19168c016107f6565b8281528e8284860101111561090d5760008081fd5b828285018d83013760009281018c01929092525083525091870191908701906108a7565b9a9950505050505050505050565b60e060020a634e487b7102600052603260045260246000fd5b60e060020a634e487b7102600052601260045260246000fd5b60008261098057610980610958565b500690565b60e060020a634e487b7102600052601160045260246000fd5b6000826109ad576109ad610958565b500490565b60006000198214156109c6576109c6610985565b5060010190565b6000828210156109df576109df610985565b500390565b6000825160005b81811015610a0557602081860181015185830152016109eb565b81811115610a14576000828501525b509190910192915050565b60008219821115610a3257610a32610985565b50019056fea26469706673582212206ee81bb7370090b3c4f2a45d359a2deec9427cf086bd24980ca9dfe0b80df56e64736f6c634300080b0033",
  "immutableReferences": {},
  "source": "// SPDX-License-Identifier: MIT  \npragma solidity^0.8.10;\n\ncontract MerkleProof{\n    bytes32[] public hashes;\n    uint256 public count;\n    function inputTransaction(string[] memory _transactions)public{\n        count =_transactions.length;\n        for(uint i=0; i<count; i++){\n            hashes.push(keccak256(abi.encodePacked(_transactions[i])));\n        }\n        createMerkleTree();\n    }\n    function createMerkleTree() private{\n        uint n =hashes.length;\n        uint offset=0;\n        while(n>0){\n            for(uint i=0; i<n-1; i+=2){\n                hashes.push(keccak256(abi.encodePacked(hashes[offset+i],hashes[offset+i+1])));\n            }\n            offset+=n;\n            n=n/2;\n        }\n    }\n    // you passed hashes array [t0, t23] and index 0; \n    function verify(uint index, bytes32 leaf) public view returns(bool){\n        bytes32[] memory hashArray=getHashArray(index);\n        bytes32 hash =leaf;\n        for(uint i=0; i<hashArray.length; i++){\n            bytes32 currentHash = hashArray[i];\n            if(index % 2 == 0){\n                hash =keccak256(abi.encodePacked(hash,currentHash));\n            }else{\n                hash =keccak256(abi.encodePacked(currentHash,hash));\n            }\n            index =index/2;\n        }\n        bytes32 rootHash =getRoot();\n        if(rootHash==hash) return true;\n        return false;\n    }\n    function getHashArray(uint256 index) private view returns(bytes32[] memory ){\n        uint counter =log2(count);\n        bytes32[] memory hashArray= new bytes32[](counter);\n        \n        for(uint i=0; i< counter; i++){\n            if( index % 2 == 0){\n                hashArray[i] =hashes[index+1];\n                \n            }else{\n                hashArray[i] =hashes[index-1];\n                \n            }          \n            index =(index / 2)+count;  \n        }\n        return hashArray;          \n    }                                      \n    function log2(uint x) private pure returns (uint y){\n    assembly {\n            let arg := x\n            x := sub(x,1)\n            x := or(x, div(x, 0x02))\n            x := or(x, div(x, 0x04))\n            x := or(x, div(x, 0x10))\n            x := or(x, div(x, 0x100))\n            x := or(x, div(x, 0x10000))\n            x := or(x, div(x, 0x100000000))\n            x := or(x, div(x, 0x10000000000000000))\n            x := or(x, div(x, 0x100000000000000000000000000000000))\n            x := add(x, 1)\n            let m := mload(0x40)\n            mstore(m,           0xf8f9cbfae6cc78fbefe7cdc3a1793dfcf4f0e8bbd8cec470b6a28a7a5a3e1efd)\n            mstore(add(m,0x20), 0xf5ecf1b3e9debc68e1d9cfabc5997135bfb7a7a3938b7b606b5b4b3f2f1f0ffe)\n            mstore(add(m,0x40), 0xf6e4ed9ff2d6b458eadcdf97bd91692de2d4da8fd2d0ac50c6ae9a8272523616)\n            mstore(add(m,0x60), 0xc8c0b887b0a8a4489c948c7f847c6125746c645c544c444038302820181008ff)\n            mstore(add(m,0x80), 0xf7cae577eec2a03cf3bad76fb589591debb2dd67e0aa9834bea6925f6a4a2e0e)\n            mstore(add(m,0xa0), 0xe39ed557db96902cd38ed14fad815115c786af479b7e83247363534337271707)\n            mstore(add(m,0xc0), 0xc976c13bb96e881cb166a933a55e490d9d56952b8d4e801485467d2362422606)\n            mstore(add(m,0xe0), 0x753a6d1b65325d0c552a4d1345224105391a310b29122104190a110309020100)\n            mstore(0x40, add(m, 0x100))\n            let magic := 0x818283848586878898a8b8c8d8e8f929395969799a9b9d9e9faaeb6bedeeff\n            let shift := 0x100000000000000000000000000000000000000000000000000000000000000\n            let a := div(mul(x, magic), shift)\n            y := div(mload(add(m,sub(255,a))), shift)\n            y := add(y, mul(256, gt(arg, 0x8000000000000000000000000000000000000000000000000000000000000000)))\n        }  \n    }\n    function getHashes() public view returns(bytes32[] memory){\n        return hashes;\n    }\n    function getRoot() public view returns(bytes32){\n        return hashes[hashes.length-1];\n    }\n}\n\n// [\"1\",\"2\",\"3\",\"4\",\"5\",\"6\",\"7\",\"8\"]\n// 0xc89efdaa54c0f20c7adf612882df0950f5a951637e0307cdcb4c672f298b8bc6,\n// 0xad7c5bef027816a800da1736444fb58a807ef4c9603b7848673f7e3a68eb14a5,\n// 0x2a80e1ef1d7842f27f2e6be0972bb708b9a135c38860dbe73c27c3486c34f4de,\n// 0x13600b294191fc92924bb3ce4b969c1e7e2bab8f4c93c3fc6d0a51733df3c060,\n// 0xceebf77a833b30520287ddd9478ff51abbdffa30aa90a8d655dba0e8a79ce0c1,\n// 0xe455bf8ea6e7463a1046a0b52804526e119b4bf5136279614e0b1e8e296a4e2d,\n// 0x52f1a9b320cab38e5da8a8f97989383aab0a49165fc91c737310e4f7e9821021,\n// 0xe4b1702d9298fee62dfeccc57d322a463ad55ca201256d01f62b45b2e1c21c10\n\n// 0xc89efdaa54c0f20c7adf612882df0950f5a951637e0307cdcb4c672f298b8bc6,\n// 0xad7c5bef027816a800da1736444fb58a807ef4c9603b7848673f7e3a68eb14a5,\n// 0x2a80e1ef1d7842f27f2e6be0972bb708b9a135c38860dbe73c27c3486c34f4de,\n// 0x13600b294191fc92924bb3ce4b969c1e7e2bab8f4c93c3fc6d0a51733df3c060,\n// 0xceebf77a833b30520287ddd9478ff51abbdffa30aa90a8d655dba0e8a79ce0c1,\n// 0xe455bf8ea6e7463a1046a0b52804526e119b4bf5136279614e0b1e8e296a4e2d,\n// 0x52f1a9b320cab38e5da8a8f97989383aab0a49165fc91c737310e4f7e9821021,\n// 0xe4b1702d9298fee62dfeccc57d322a463ad55ca201256d01f62b45b2e1c21c10,\n\n// 0x08629ae32294b0f0b9b75732d124f37e3f1e88c67028c8fb63f5280d11945961,\n// 0x530ffcc8ace434febd23d08b521c5901cc2767865b583fb01942f324c6737cf5,\n// 0xd5f2cc77b02cdfeeb0101a2ef46f583e4a552fe89616f7db273cdb510df4f3d9,\n// 0x44175ac6cd3e7987890f2ca00885c7a88da8e29eac5defa009b73687964e08a0,\n\n// 0x0d498b4e4bf2c63430c21419d50b819372e1d6e0dcb411c3a973090b608e44cb,\n// 0x8a1b2d8c1b806052a0e1c34a2e709f069f669d40187da89d26569d339317d155,\n\n// 0x9578ec9a51e85e5c287e3bccec1bcec9f0de5d05717e8b932190370da9d86d72\n\n// [t0,t1,t2,t3,t01,t23,t0123]\n// [\"0xc89efdaa54c0f20c7adf612882df0950f5a951637e0307cdcb4c672f298b8bc6\",\"0x530ffcc8ace434febd23d08b521c5901cc2767865b583fb01942f324c6737cf5\"],1,\"0xad7c5bef027816a800da1736444fb58a807ef4c9603b7848673f7e3a68eb14a5\"]\n\n// OUTPUT GETHASHARRAY\n// 0xad7c5bef027816a800da1736444fb58a807ef4c9603b7848673f7e3a68eb14a5,\n// 0x530ffcc8ace434febd23d08b521c5901cc2767865b583fb01942f324c6737cf5,\n// 0x8a1b2d8c1b806052a0e1c34a2e709f069f669d40187da89d26569d339317d155",
  "sourcePath": "/home/alankrit/Desktop/MerkleProof/client-merkle-proof/src/contracts/MerkleProof.sol",
  "compiler": {
    "name": "solc",
    "version": "0.8.11+commit.d7f03943.Emscripten.clang"
  },
  "schemaVersion": "3.4.4",
  "updatedAt": "2022-02-15T17:25:06.711Z",
  "networkType": "ethereum",
  "devdoc": {
    "kind": "dev",
    "methods": {},
    "version": 1
  },
  "userdoc": {
    "kind": "user",
    "methods": {},
    "version": 1
  }
}