{
  "contractName": "MerkleProof",
  "abi": [
    {
      "inputs": [],
      "name": "count",
      "outputs": [
        {
          "internalType": "uint256",
          "name": "",
          "type": "uint256"
        }
      ],
      "stateMutability": "view",
      "type": "function",
      "constant": true
    },
    {
      "inputs": [],
      "name": "finalLength",
      "outputs": [
        {
          "internalType": "uint256",
          "name": "",
          "type": "uint256"
        }
      ],
      "stateMutability": "view",
      "type": "function",
      "constant": true
    },
    {
      "inputs": [
        {
          "internalType": "uint256",
          "name": "",
          "type": "uint256"
        }
      ],
      "name": "hashes",
      "outputs": [
        {
          "internalType": "bytes32",
          "name": "",
          "type": "bytes32"
        }
      ],
      "stateMutability": "view",
      "type": "function",
      "constant": true
    },
    {
      "inputs": [],
      "name": "isOfPower2",
      "outputs": [
        {
          "internalType": "bool",
          "name": "",
          "type": "bool"
        }
      ],
      "stateMutability": "view",
      "type": "function",
      "constant": true
    },
    {
      "inputs": [
        {
          "internalType": "string[]",
          "name": "_transactions",
          "type": "string[]"
        }
      ],
      "name": "inputTransaction",
      "outputs": [],
      "stateMutability": "nonpayable",
      "type": "function"
    },
    {
      "inputs": [
        {
          "internalType": "uint256",
          "name": "index",
          "type": "uint256"
        },
        {
          "internalType": "bytes32",
          "name": "leaf",
          "type": "bytes32"
        }
      ],
      "name": "verify",
      "outputs": [
        {
          "internalType": "bool",
          "name": "",
          "type": "bool"
        }
      ],
      "stateMutability": "view",
      "type": "function",
      "constant": true
    },
    {
      "inputs": [],
      "name": "getHashes",
      "outputs": [
        {
          "internalType": "bytes32[]",
          "name": "",
          "type": "bytes32[]"
        }
      ],
      "stateMutability": "view",
      "type": "function",
      "constant": true
    },
    {
      "inputs": [],
      "name": "getRoot",
      "outputs": [
        {
          "internalType": "bytes32",
          "name": "",
          "type": "bytes32"
        }
      ],
      "stateMutability": "view",
      "type": "function",
      "constant": true
    }
  ],
  "bytecode": "0x608060405234801561001057600080fd5b50610c73806100206000396000f3fe608060405234801561001057600080fd5b50600436106100a5576000357c010000000000000000000000000000000000000000000000000000000090048063501895ae11610078578063501895ae1461010b5780635ca1e1651461011e578063c8f3531f14610126578063d3e1c7761461013b57600080fd5b806306661abd146100aa5780631d97ce31146100c65780634245d48e146100e957806349d29980146100fe575b600080fd5b6100b360015481565b6040519081526020015b60405180910390f35b6100d96100d436600461086a565b610144565b60405190151581526020016100bd565b6100f161023c565b6040516100bd919061088c565b6003546100d99060ff1681565b6100b36101193660046108d0565b610294565b6100b36102b5565b610139610134366004610933565b6102e7565b005b6100b360025481565b6000806101508461043d565b90508260005b825181101561020d57600083828151811061017357610173610a4b565b6020026020010151905060028761018a9190610a7d565b6101bf5760408051602081018590529081018290526060016040516020818303038152906040528051906020012092506101ec565b60408051602081018390529081018490526060016040516020818303038152906040528051906020012092505b6101f7600288610aaa565b965050808061020590610abe565b915050610156565b5060006102186102b5565b90508181141561022e5760019350505050610236565b600093505050505b92915050565b6060600080548060200260200160405190810160405280929190818152602001828054801561028a57602002820191906000526020600020905b815481526020019060010190808311610276575b5050505050905090565b600081815481106102a457600080fd5b600091825260209091200154905081565b6000805481906102c790600190610ad9565b815481106102d7576102d7610a4b565b9060005260206000200154905090565b805160015560005b600054811015610329576000818154811061030c5761030c610a4b565b60009182526020822001558061032181610abe565b9150506102ef565b506001541580159061034a5750600180546103449190610ad9565b60015416155b6003805460ff191691151591909117905560015460009061036a90610577565b9050610377816002610bd7565b60025560005b600254811015610430576001548110156103ed5760008382815181106103a5576103a5610a4b565b60200260200101516040516020016103bd9190610bea565b60408051601f1981840301815291905280516020918201208254600181018455600093845291909220015561041e565b600080546001810182558180527f290decd9548b62a8d60345a988386fc84ba6bc95484008f6362f93160ef3e56301555b8061042881610abe565b91505061037d565b5061043961077a565b5050565b6060600061044c600254610577565b905060008167ffffffffffffffff811115610469576104696108e9565b604051908082528060200260200182016040528015610492578160200160208202803683370190505b50905060005b8281101561056f576104ab600286610a7d565b6104fa5760006104bc866001610c25565b815481106104cc576104cc610a4b565b90600052602060002001548282815181106104e9576104e9610a4b565b602002602001018181525050610541565b6000610507600187610ad9565b8154811061051757610517610a4b565b906000526020600020015482828151811061053457610534610a4b565b6020026020010181815250505b6002546002866105519190610aaa565b61055b9190610c25565b94508061056781610abe565b915050610498565b509392505050565b604080517ff8f9cbfae6cc78fbefe7cdc3a1793dfcf4f0e8bbd8cec470b6a28a7a5a3e1efd81527ff5ecf1b3e9debc68e1d9cfabc5997135bfb7a7a3938b7b606b5b4b3f2f1f0ffe60208201527ff6e4ed9ff2d6b458eadcdf97bd91692de2d4da8fd2d0ac50c6ae9a8272523616818301527fc8c0b887b0a8a4489c948c7f847c6125746c645c544c444038302820181008ff60608201527ff7cae577eec2a03cf3bad76fb589591debb2dd67e0aa9834bea6925f6a4a2e0e60808201527fe39ed557db96902cd38ed14fad815115c786af479b7e8324736353433727170760a08201527fc976c13bb96e881cb166a933a55e490d9d56952b8d4e801485467d236242260660c08201527f753a6d1b65325d0c552a4d1345224105391a310b29122104190a11030902010060e08201526101008082019092527f0100000000000000000000000000000000000000000000000000000000000000600170010000000000000000000000000000000068010000000000000000640100000000620100006010600460026000198c019081041790810417908104178881041790810417908104179081041790810417017e818283848586878898a8b8c8d8e8f929395969799a9b9d9e9faaeb6bedeeff0281900460ff0390910151047f8000000000000000000000000000000000000000000000000000000000000000909211020190565b60008054905b81156104395760005b610794600184610ad9565b81101561084b576000806107a88385610c25565b815481106107b8576107b8610a4b565b6000918252602082200154906107ce8486610c25565b6107d9906001610c25565b815481106107e9576107e9610a4b565b906000526020600020015460405160200161080e929190918252602082015260400190565b60408051601f19818403018152919052805160209182012082546001810184556000938452919092200155610844600282610c25565b9050610789565b506108568282610c25565b9050610863600283610aaa565b9150610780565b6000806040838503121561087d57600080fd5b50508035926020909101359150565b6020808252825182820181905260009190848201906040850190845b818110156108c4578351835292840192918401916001016108a8565b50909695505050505050565b6000602082840312156108e257600080fd5b5035919050565b60e060020a634e487b7102600052604160045260246000fd5b604051601f8201601f1916810167ffffffffffffffff8111828210171561092b5761092b6108e9565b604052919050565b6000602080838503121561094657600080fd5b823567ffffffffffffffff8082111561095e57600080fd5b8185019150601f868184011261097357600080fd5b823582811115610985576109856108e9565b848102610993868201610902565b918252848101860191868101908a8411156109ad57600080fd5b87870192505b83831015610a3d578235868111156109cb5760008081fd5b8701603f81018c136109dd5760008081fd5b888101356040888211156109f3576109f36108e9565b610a04828901601f19168c01610902565b8281528e82848601011115610a195760008081fd5b828285018d83013760009281018c01929092525083525091870191908701906109b3565b9a9950505050505050505050565b60e060020a634e487b7102600052603260045260246000fd5b60e060020a634e487b7102600052601260045260246000fd5b600082610a8c57610a8c610a64565b500690565b60e060020a634e487b7102600052601160045260246000fd5b600082610ab957610ab9610a64565b500490565b6000600019821415610ad257610ad2610a91565b5060010190565b600082821015610aeb57610aeb610a91565b500390565b600181815b80851115610b2d578160001904821115610b1157610b11610a91565b80851615610b1e57918102915b60029094049390800290610af5565b509250929050565b600082610b4457506001610236565b81610b5157506000610236565b8160018114610b675760028114610b7157610b8e565b6001915050610236565b60ff841115610b8257610b82610a91565b8360020a915050610236565b5060208310610133831016604e8410600b8410161715610bb1575081810a610236565b610bbb8383610af0565b8060001904821115610bcf57610bcf610a91565b029392505050565b6000610be38383610b35565b9392505050565b6000825160005b81811015610c0b5760208186018101518583015201610bf1565b81811115610c1a576000828501525b509190910192915050565b60008219821115610c3857610c38610a91565b50019056fea2646970667358221220ba49dcd4524133a93c3b201f0e90569548574235f420eafd21ea8d5beccd3bb164736f6c634300080b0033",
  "immutableReferences": {},
  "source": "// SPDX-License-Identifier: MIT  \npragma solidity^0.8.10;\n\ncontract MerkleProof{\n    bytes32[] public hashes;\n    uint256 public count;\n    uint256 public finalLength;\n    bool public isOfPower2;\n    function inputTransaction(string[] memory _transactions)public{\n        count =_transactions.length;\n        for(uint j=0; j<hashes.length; j++){\n            delete hashes[j];\n        }\n        isOfPower2 =(count != 0) && ((count & (count - 1)) == 0);\n        uint256 log =log2(count);\n        finalLength =2**log; \n        for(uint i=0; i<finalLength; i++){\n            if(i<count){\n                hashes.push(keccak256(abi.encodePacked(_transactions[i])));\n            }else{\n                hashes.push(0x0000000000000000000000000000000000000000000000000000000000000000);\n            }\n        }\n        createMerkleTree();\n    }\n    function createMerkleTree() private{\n        uint n =hashes.length;\n        uint offset=0;\n        while(n>0){\n            for(uint i=0; i<n-1; i+=2){\n                hashes.push(keccak256(abi.encodePacked(hashes[offset+i],hashes[offset+i+1])));\n            }\n            offset+=n;\n            n=n/2;\n        }\n    }\n    // you passed hashes array [t0, t23] and index 0; \n    function verify(uint index, bytes32 leaf) public view returns(bool){\n        bytes32[] memory hashArray=getHashArray(index);\n        bytes32 hash =leaf;\n        for(uint i=0; i<hashArray.length; i++){\n            bytes32 currentHash = hashArray[i];\n            if(index % 2 == 0){\n                hash =keccak256(abi.encodePacked(hash,currentHash));\n            }else{\n                hash =keccak256(abi.encodePacked(currentHash,hash));\n            }\n            index =index/2;\n        }\n        bytes32 rootHash =getRoot();\n        if(rootHash==hash) return true;\n        return false;\n    }\n    function getHashArray(uint256 index) private view returns(bytes32[] memory ){\n        uint counter =log2(finalLength);\n        bytes32[] memory hashArray= new bytes32[](counter);\n        \n        for(uint i=0; i< counter; i++){\n            if( index % 2 == 0){\n                hashArray[i] =hashes[index+1];\n                \n            }else{\n                hashArray[i] =hashes[index-1];\n                \n            }          \n            index =(index / 2)+finalLength;  \n        }\n        return hashArray;          \n    }                                      \n    function log2(uint x) private pure returns (uint y){\n    assembly {\n            let arg := x\n            x := sub(x,1)\n            x := or(x, div(x, 0x02))\n            x := or(x, div(x, 0x04))\n            x := or(x, div(x, 0x10))\n            x := or(x, div(x, 0x100))\n            x := or(x, div(x, 0x10000))\n            x := or(x, div(x, 0x100000000))\n            x := or(x, div(x, 0x10000000000000000))\n            x := or(x, div(x, 0x100000000000000000000000000000000))\n            x := add(x, 1)\n            let m := mload(0x40)\n            mstore(m,           0xf8f9cbfae6cc78fbefe7cdc3a1793dfcf4f0e8bbd8cec470b6a28a7a5a3e1efd)\n            mstore(add(m,0x20), 0xf5ecf1b3e9debc68e1d9cfabc5997135bfb7a7a3938b7b606b5b4b3f2f1f0ffe)\n            mstore(add(m,0x40), 0xf6e4ed9ff2d6b458eadcdf97bd91692de2d4da8fd2d0ac50c6ae9a8272523616)\n            mstore(add(m,0x60), 0xc8c0b887b0a8a4489c948c7f847c6125746c645c544c444038302820181008ff)\n            mstore(add(m,0x80), 0xf7cae577eec2a03cf3bad76fb589591debb2dd67e0aa9834bea6925f6a4a2e0e)\n            mstore(add(m,0xa0), 0xe39ed557db96902cd38ed14fad815115c786af479b7e83247363534337271707)\n            mstore(add(m,0xc0), 0xc976c13bb96e881cb166a933a55e490d9d56952b8d4e801485467d2362422606)\n            mstore(add(m,0xe0), 0x753a6d1b65325d0c552a4d1345224105391a310b29122104190a110309020100)\n            mstore(0x40, add(m, 0x100))\n            let magic := 0x818283848586878898a8b8c8d8e8f929395969799a9b9d9e9faaeb6bedeeff\n            let shift := 0x100000000000000000000000000000000000000000000000000000000000000\n            let a := div(mul(x, magic), shift)\n            y := div(mload(add(m,sub(255,a))), shift)\n            y := add(y, mul(256, gt(arg, 0x8000000000000000000000000000000000000000000000000000000000000000)))\n        }  \n    }\n    function getHashes() public view returns(bytes32[] memory){\n        return hashes;\n    }\n    function getRoot() public view returns(bytes32){\n        return hashes[hashes.length-1];\n    }\n}\n\n// [\"1\",\"2\",\"3\",\"4\",\"5\",\"6\",\"7\",\"8\"]\n// 0x0000000000000000000000000000000000000000000000000000000000000000,\n// 0xc89efdaa54c0f20c7adf612882df0950f5a951637e0307cdcb4c672f298b8bc6,\n// 0xad7c5bef027816a800da1736444fb58a807ef4c9603b7848673f7e3a68eb14a5,\n// 0x2a80e1ef1d7842f27f2e6be0972bb708b9a135c38860dbe73c27c3486c34f4de,\n// 0x13600b294191fc92924bb3ce4b969c1e7e2bab8f4c93c3fc6d0a51733df3c060,\n// 0xceebf77a833b30520287ddd9478ff51abbdffa30aa90a8d655dba0e8a79ce0c1,\n// 0xe455bf8ea6e7463a1046a0b52804526e119b4bf5136279614e0b1e8e296a4e2d,\n// 0x52f1a9b320cab38e5da8a8f97989383aab0a49165fc91c737310e4f7e9821021,\n// 0xe4b1702d9298fee62dfeccc57d322a463ad55ca201256d01f62b45b2e1c21c10\n\n// 0xc89efdaa54c0f20c7adf612882df0950f5a951637e0307cdcb4c672f298b8bc6,\n// 0xad7c5bef027816a800da1736444fb58a807ef4c9603b7848673f7e3a68eb14a5,\n// 0x2a80e1ef1d7842f27f2e6be0972bb708b9a135c38860dbe73c27c3486c34f4de,\n// 0x13600b294191fc92924bb3ce4b969c1e7e2bab8f4c93c3fc6d0a51733df3c060,\n// 0xceebf77a833b30520287ddd9478ff51abbdffa30aa90a8d655dba0e8a79ce0c1,\n// 0xe455bf8ea6e7463a1046a0b52804526e119b4bf5136279614e0b1e8e296a4e2d,\n// 0x52f1a9b320cab38e5da8a8f97989383aab0a49165fc91c737310e4f7e9821021,\n// 0xe4b1702d9298fee62dfeccc57d322a463ad55ca201256d01f62b45b2e1c21c10,\n\n// 0x08629ae32294b0f0b9b75732d124f37e3f1e88c67028c8fb63f5280d11945961,\n// 0x530ffcc8ace434febd23d08b521c5901cc2767865b583fb01942f324c6737cf5,\n// 0xd5f2cc77b02cdfeeb0101a2ef46f583e4a552fe89616f7db273cdb510df4f3d9,\n// 0x44175ac6cd3e7987890f2ca00885c7a88da8e29eac5defa009b73687964e08a0,\n\n// 0x0d498b4e4bf2c63430c21419d50b819372e1d6e0dcb411c3a973090b608e44cb,\n// 0x8a1b2d8c1b806052a0e1c34a2e709f069f669d40187da89d26569d339317d155,\n\n// 0x9578ec9a51e85e5c287e3bccec1bcec9f0de5d05717e8b932190370da9d86d72\n\n// [t0,t1,t2,t3,t01,t23,t0123]\n// [\"0xc89efdaa54c0f20c7adf612882df0950f5a951637e0307cdcb4c672f298b8bc6\",\"0x530ffcc8ace434febd23d08b521c5901cc2767865b583fb01942f324c6737cf5\"],1,\"0xad7c5bef027816a800da1736444fb58a807ef4c9603b7848673f7e3a68eb14a5\"]\n\n// OUTPUT GETHASHARRAY\n// 0xad7c5bef027816a800da1736444fb58a807ef4c9603b7848673f7e3a68eb14a5,\n// 0x530ffcc8ace434febd23d08b521c5901cc2767865b583fb01942f324c6737cf5,\n// 0x8a1b2d8c1b806052a0e1c34a2e709f069f669d40187da89d26569d339317d155",
  "sourcePath": "/home/alankrit/Desktop/MerkleProof/client-merkle-proof/src/contracts/MerkleProof.sol",
  "compiler": {
    "name": "solc",
    "version": "0.8.11+commit.d7f03943.Emscripten.clang"
  },
  "schemaVersion": "3.4.4",
  "updatedAt": "2022-02-19T12:19:12.932Z",
  "networkType": "ethereum",
  "devdoc": {
    "kind": "dev",
    "methods": {},
    "version": 1
  },
  "userdoc": {
    "kind": "user",
    "methods": {},
    "version": 1
  }
}