{
  "contractName": "MerkleProof",
  "abi": [
    {
      "inputs": [],
      "name": "count",
      "outputs": [
        {
          "internalType": "uint256",
          "name": "",
          "type": "uint256"
        }
      ],
      "stateMutability": "view",
      "type": "function",
      "constant": true
    },
    {
      "inputs": [
        {
          "internalType": "uint256",
          "name": "",
          "type": "uint256"
        }
      ],
      "name": "hashes",
      "outputs": [
        {
          "internalType": "bytes32",
          "name": "",
          "type": "bytes32"
        }
      ],
      "stateMutability": "view",
      "type": "function",
      "constant": true
    },
    {
      "inputs": [
        {
          "internalType": "string[]",
          "name": "_transactions",
          "type": "string[]"
        }
      ],
      "name": "inputTransaction",
      "outputs": [],
      "stateMutability": "nonpayable",
      "type": "function"
    },
    {
      "inputs": [
        {
          "internalType": "uint256",
          "name": "index",
          "type": "uint256"
        },
        {
          "internalType": "bytes32",
          "name": "leaf",
          "type": "bytes32"
        }
      ],
      "name": "verify",
      "outputs": [
        {
          "internalType": "bool",
          "name": "",
          "type": "bool"
        }
      ],
      "stateMutability": "view",
      "type": "function",
      "constant": true
    },
    {
      "inputs": [
        {
          "internalType": "uint256",
          "name": "x",
          "type": "uint256"
        }
      ],
      "name": "log2",
      "outputs": [
        {
          "internalType": "uint256",
          "name": "y",
          "type": "uint256"
        }
      ],
      "stateMutability": "pure",
      "type": "function",
      "constant": true
    }
  ],
  "bytecode": "0x608060405234801561001057600080fd5b506109be806100206000396000f3fe608060405234801561001057600080fd5b5060043610610073577c0100000000000000000000000000000000000000000000000000000000600035046306661abd81146100785780631d97ce3114610094578063501895ae146100b75780635456bf13146100ca578063c8f3531f146100dd575b600080fd5b61008160015481565b6040519081526020015b60405180910390f35b6100a76100a23660046106f3565b6100f2565b604051901515815260200161008b565b6100816100c5366004610715565b6101ea565b6100816100d8366004610715565b61020b565b6100f06100eb366004610778565b61040e565b005b6000806100fe84610495565b90508260005b82518110156101bb57600083828151811061012157610121610890565b6020026020010151905060028761013891906108c2565b61016d57604080516020810185905290810182905260600160405160208183030381529060405280519060200120925061019a565b60408051602081018390529081018490526060016040516020818303038152906040528051906020012092505b6101a56002886108ef565b96505080806101b390610903565b915050610104565b5060006101c66105cd565b9050818114156101dc57600193505050506101e4565b600093505050505b92915050565b600081815481106101fa57600080fd5b600091825260209091200154905081565b604080517ff8f9cbfae6cc78fbefe7cdc3a1793dfcf4f0e8bbd8cec470b6a28a7a5a3e1efd81527ff5ecf1b3e9debc68e1d9cfabc5997135bfb7a7a3938b7b606b5b4b3f2f1f0ffe60208201527ff6e4ed9ff2d6b458eadcdf97bd91692de2d4da8fd2d0ac50c6ae9a8272523616818301527fc8c0b887b0a8a4489c948c7f847c6125746c645c544c444038302820181008ff60608201527ff7cae577eec2a03cf3bad76fb589591debb2dd67e0aa9834bea6925f6a4a2e0e60808201527fe39ed557db96902cd38ed14fad815115c786af479b7e8324736353433727170760a08201527fc976c13bb96e881cb166a933a55e490d9d56952b8d4e801485467d236242260660c08201527f753a6d1b65325d0c552a4d1345224105391a310b29122104190a11030902010060e08201526101008082019092527f0100000000000000000000000000000000000000000000000000000000000000600170010000000000000000000000000000000068010000000000000000640100000000620100006010600460026000198c019081041790810417908104178881041790810417908104179081041790810417017e818283848586878898a8b8c8d8e8f929395969799a9b9d9e9faaeb6bedeeff0281900460ff0390910151047f8000000000000000000000000000000000000000000000000000000000000000909211020190565b805160015560005b60015481101561048957600082828151811061043457610434610890565b602002602001015160405160200161044c919061091e565b60408051601f198184030181529190528051602091820120825460018101845560009384529190922001558061048181610903565b915050610416565b506104926105ff565b50565b606060006104a460015461020b565b905060008167ffffffffffffffff8111156104c1576104c161072e565b6040519080825280602002602001820160405280156104ea578160200160208202803683370190505b50905060005b828110156105c5576105036002866108c2565b610552576000610514866001610959565b8154811061052457610524610890565b906000526020600020015482828151811061054157610541610890565b602002602001018181525050610599565b600061055f600187610971565b8154811061056f5761056f610890565b906000526020600020015482828151811061058c5761058c610890565b6020026020010181815250505b6001546105a76002876108ef565b6105b19190610959565b9450806105bd81610903565b9150506104f0565b509392505050565b6000805481906105df90600190610971565b815481106105ef576105ef610890565b9060005260206000200154905090565b60008054905b81156106ef5760005b610619600184610971565b8110156106d05760008061062d8385610959565b8154811061063d5761063d610890565b6000918252602082200154906106538486610959565b61065e906001610959565b8154811061066e5761066e610890565b9060005260206000200154604051602001610693929190918252602082015260400190565b60408051601f198184030181529190528051602091820120825460018101845560009384529190922001556106c9600282610959565b905061060e565b506106db8282610959565b90506106e86002836108ef565b9150610605565b5050565b6000806040838503121561070657600080fd5b50508035926020909101359150565b60006020828403121561072757600080fd5b5035919050565b60e060020a634e487b7102600052604160045260246000fd5b604051601f8201601f1916810167ffffffffffffffff811182821017156107705761077061072e565b604052919050565b6000602080838503121561078b57600080fd5b823567ffffffffffffffff808211156107a357600080fd5b8185019150601f86818401126107b857600080fd5b8235828111156107ca576107ca61072e565b8481026107d8868201610747565b918252848101860191868101908a8411156107f257600080fd5b87870192505b83831015610882578235868111156108105760008081fd5b8701603f81018c136108225760008081fd5b888101356040888211156108385761083861072e565b610849828901601f19168c01610747565b8281528e8284860101111561085e5760008081fd5b828285018d83013760009281018c01929092525083525091870191908701906107f8565b9a9950505050505050505050565b60e060020a634e487b7102600052603260045260246000fd5b60e060020a634e487b7102600052601260045260246000fd5b6000826108d1576108d16108a9565b500690565b60e060020a634e487b7102600052601160045260246000fd5b6000826108fe576108fe6108a9565b500490565b6000600019821415610917576109176108d6565b5060010190565b6000825160005b8181101561093f5760208186018101518583015201610925565b8181111561094e576000828501525b509190910192915050565b6000821982111561096c5761096c6108d6565b500190565b600082821015610983576109836108d6565b50039056fea2646970667358221220d6dbe52e9ea4a462c8fe71c450f08ab6e3bca5eb70132e63693584aadd98a64064736f6c634300080b0033",
  "immutableReferences": {},
  "source": "// SPDX-License-Identifier: MIT  \npragma solidity^0.8.10;\n\ncontract MerkleProof{\n    bytes32[] public hashes;\n    uint256 public count;\n    function inputTransaction(string[] memory _transactions)public{\n        count =_transactions.length;\n        for(uint i=0; i<count; i++){\n            hashes.push(keccak256(abi.encodePacked(_transactions[i])));\n        }\n        createMerkleTree();\n    }\n    function createMerkleTree() private{\n        uint n =hashes.length;\n        uint offset=0;\n        while(n>0){\n            for(uint i=0; i<n-1; i+=2){\n                hashes.push(keccak256(abi.encodePacked(hashes[offset+i],hashes[offset+i+1])));\n            }\n            offset+=n;\n            n=n/2;\n        }\n    }\n    // you passed hashes array [t0, t23] and index 0; \n    function verify(uint index, bytes32 leaf) public view returns(bool){\n        bytes32[] memory hashArray=getHashArray(index);\n        bytes32 hash =leaf;\n        for(uint i=0; i<hashArray.length; i++){\n            bytes32 currentHash = hashArray[i];\n            if(index % 2 == 0){\n                hash =keccak256(abi.encodePacked(hash,currentHash));\n            }else{\n                hash =keccak256(abi.encodePacked(currentHash,hash));\n            }\n            index =index/2;\n        }\n        bytes32 rootHash =getRoot();\n        if(rootHash==hash) return true;\n        return false;\n    }\n    function getHashArray(uint256 index) private view returns(bytes32[] memory ){\n        uint counter =log2(count);\n        bytes32[] memory hashArray= new bytes32[](counter);\n        \n        for(uint i=0; i< counter; i++){\n            if( index % 2 == 0){\n                hashArray[i] =hashes[index+1];\n                \n            }else{\n                hashArray[i] =hashes[index-1];\n                \n            }          \n            index =(index / 2)+count;  \n        }\n        return hashArray;          \n    }                                      \n    function log2(uint x) public pure returns (uint y){\n    assembly {\n            let arg := x\n            x := sub(x,1)\n            x := or(x, div(x, 0x02))\n            x := or(x, div(x, 0x04))\n            x := or(x, div(x, 0x10))\n            x := or(x, div(x, 0x100))\n            x := or(x, div(x, 0x10000))\n            x := or(x, div(x, 0x100000000))\n            x := or(x, div(x, 0x10000000000000000))\n            x := or(x, div(x, 0x100000000000000000000000000000000))\n            x := add(x, 1)\n            let m := mload(0x40)\n            mstore(m,           0xf8f9cbfae6cc78fbefe7cdc3a1793dfcf4f0e8bbd8cec470b6a28a7a5a3e1efd)\n            mstore(add(m,0x20), 0xf5ecf1b3e9debc68e1d9cfabc5997135bfb7a7a3938b7b606b5b4b3f2f1f0ffe)\n            mstore(add(m,0x40), 0xf6e4ed9ff2d6b458eadcdf97bd91692de2d4da8fd2d0ac50c6ae9a8272523616)\n            mstore(add(m,0x60), 0xc8c0b887b0a8a4489c948c7f847c6125746c645c544c444038302820181008ff)\n            mstore(add(m,0x80), 0xf7cae577eec2a03cf3bad76fb589591debb2dd67e0aa9834bea6925f6a4a2e0e)\n            mstore(add(m,0xa0), 0xe39ed557db96902cd38ed14fad815115c786af479b7e83247363534337271707)\n            mstore(add(m,0xc0), 0xc976c13bb96e881cb166a933a55e490d9d56952b8d4e801485467d2362422606)\n            mstore(add(m,0xe0), 0x753a6d1b65325d0c552a4d1345224105391a310b29122104190a110309020100)\n            mstore(0x40, add(m, 0x100))\n            let magic := 0x818283848586878898a8b8c8d8e8f929395969799a9b9d9e9faaeb6bedeeff\n            let shift := 0x100000000000000000000000000000000000000000000000000000000000000\n            let a := div(mul(x, magic), shift)\n            y := div(mload(add(m,sub(255,a))), shift)\n            y := add(y, mul(256, gt(arg, 0x8000000000000000000000000000000000000000000000000000000000000000)))\n        }  \n    }\n    function getHashes() view private returns(bytes32[] memory){\n        return hashes;\n    }\n    function getRoot() private view returns(bytes32){\n        return hashes[hashes.length-1];\n    }\n}\n\n// [\"1\",\"2\",\"3\",\"4\",\"5\",\"6\",\"7\",\"8\"]\n// 0xc89efdaa54c0f20c7adf612882df0950f5a951637e0307cdcb4c672f298b8bc6,\n// 0xad7c5bef027816a800da1736444fb58a807ef4c9603b7848673f7e3a68eb14a5,\n// 0x2a80e1ef1d7842f27f2e6be0972bb708b9a135c38860dbe73c27c3486c34f4de,\n// 0x13600b294191fc92924bb3ce4b969c1e7e2bab8f4c93c3fc6d0a51733df3c060,\n// 0xceebf77a833b30520287ddd9478ff51abbdffa30aa90a8d655dba0e8a79ce0c1,\n// 0xe455bf8ea6e7463a1046a0b52804526e119b4bf5136279614e0b1e8e296a4e2d,\n// 0x52f1a9b320cab38e5da8a8f97989383aab0a49165fc91c737310e4f7e9821021,\n// 0xe4b1702d9298fee62dfeccc57d322a463ad55ca201256d01f62b45b2e1c21c10\n\n// 0xc89efdaa54c0f20c7adf612882df0950f5a951637e0307cdcb4c672f298b8bc6,\n// 0xad7c5bef027816a800da1736444fb58a807ef4c9603b7848673f7e3a68eb14a5,\n// 0x2a80e1ef1d7842f27f2e6be0972bb708b9a135c38860dbe73c27c3486c34f4de,\n// 0x13600b294191fc92924bb3ce4b969c1e7e2bab8f4c93c3fc6d0a51733df3c060,\n// 0xceebf77a833b30520287ddd9478ff51abbdffa30aa90a8d655dba0e8a79ce0c1,\n// 0xe455bf8ea6e7463a1046a0b52804526e119b4bf5136279614e0b1e8e296a4e2d,\n// 0x52f1a9b320cab38e5da8a8f97989383aab0a49165fc91c737310e4f7e9821021,\n// 0xe4b1702d9298fee62dfeccc57d322a463ad55ca201256d01f62b45b2e1c21c10,\n\n// 0x08629ae32294b0f0b9b75732d124f37e3f1e88c67028c8fb63f5280d11945961,\n// 0x530ffcc8ace434febd23d08b521c5901cc2767865b583fb01942f324c6737cf5,\n// 0xd5f2cc77b02cdfeeb0101a2ef46f583e4a552fe89616f7db273cdb510df4f3d9,\n// 0x44175ac6cd3e7987890f2ca00885c7a88da8e29eac5defa009b73687964e08a0,\n\n// 0x0d498b4e4bf2c63430c21419d50b819372e1d6e0dcb411c3a973090b608e44cb,\n// 0x8a1b2d8c1b806052a0e1c34a2e709f069f669d40187da89d26569d339317d155,\n\n// 0x9578ec9a51e85e5c287e3bccec1bcec9f0de5d05717e8b932190370da9d86d72\n\n// [t0,t1,t2,t3,t01,t23,t0123]\n// [\"0xc89efdaa54c0f20c7adf612882df0950f5a951637e0307cdcb4c672f298b8bc6\",\"0x530ffcc8ace434febd23d08b521c5901cc2767865b583fb01942f324c6737cf5\"],1,\"0xad7c5bef027816a800da1736444fb58a807ef4c9603b7848673f7e3a68eb14a5\"]\n\n// OUTPUT GETHASHARRAY\n// 0xad7c5bef027816a800da1736444fb58a807ef4c9603b7848673f7e3a68eb14a5,\n// 0x530ffcc8ace434febd23d08b521c5901cc2767865b583fb01942f324c6737cf5,\n// 0x8a1b2d8c1b806052a0e1c34a2e709f069f669d40187da89d26569d339317d155",
  "sourcePath": "/home/alankrit/Desktop/MerkleProof/client-merkle-proof/src/contracts/MerkleProof.sol",
  "compiler": {
    "name": "solc",
    "version": "0.8.11+commit.d7f03943.Emscripten.clang"
  },
  "schemaVersion": "3.4.4",
  "updatedAt": "2022-02-15T14:16:39.751Z",
  "networkType": "ethereum",
  "devdoc": {
    "kind": "dev",
    "methods": {},
    "version": 1
  },
  "userdoc": {
    "kind": "user",
    "methods": {},
    "version": 1
  }
}